{"abi":[{"type":"constructor","inputs":[{"name":"_vault","type":"address","internalType":"address"}],"stateMutability":"nonpayable"},{"type":"function","name":"checkFlashLoan","inputs":[{"name":"amount","type":"uint256","internalType":"uint256"}],"outputs":[],"stateMutability":"nonpayable"},{"type":"function","name":"onFlashLoan","inputs":[{"name":"initiator","type":"address","internalType":"address"},{"name":"token","type":"address","internalType":"address"},{"name":"amount","type":"uint256","internalType":"uint256"},{"name":"fee","type":"uint256","internalType":"uint256"},{"name":"","type":"bytes","internalType":"bytes"}],"outputs":[{"name":"","type":"bytes32","internalType":"bytes32"}],"stateMutability":"nonpayable"},{"type":"function","name":"owner","inputs":[],"outputs":[{"name":"","type":"address","internalType":"address"}],"stateMutability":"view"},{"type":"function","name":"paused","inputs":[],"outputs":[{"name":"","type":"bool","internalType":"bool"}],"stateMutability":"view"},{"type":"event","name":"FlashLoanStatus","inputs":[{"name":"success","type":"bool","indexed":false,"internalType":"bool"}],"anonymous":false},{"type":"error","name":"UnexpectedFlashLoan","inputs":[]}],"bytecode":{"object":"0x608060405234801561000f575f80fd5b50604051610cac380380610cac83398181016040528101906100319190610114565b805f806101000a81548173ffffffffffffffffffffffffffffffffffffffff021916908373ffffffffffffffffffffffffffffffffffffffff1602179055503360015f6101000a81548173ffffffffffffffffffffffffffffffffffffffff021916908373ffffffffffffffffffffffffffffffffffffffff1602179055505061013f565b5f80fd5b5f73ffffffffffffffffffffffffffffffffffffffff82169050919050565b5f6100e3826100ba565b9050919050565b6100f3816100d9565b81146100fd575f80fd5b50565b5f8151905061010e816100ea565b92915050565b5f60208284031215610129576101286100b6565b5b5f61013684828501610100565b91505092915050565b610b608061014c5f395ff3fe608060405234801561000f575f80fd5b506004361061004a575f3560e01c806323e30c8b1461004e5780635c975abb1461007e5780638da5cb5b1461009c578063b20d53e0146100ba575b5f80fd5b610068600480360381019061006391906106f7565b6100d6565b60405161007591906107a5565b60405180910390f35b610086610329565b60405161009391906107d8565b60405180910390f35b6100a461033c565b6040516100b19190610800565b60405180910390f35b6100d460048036038101906100cf9190610819565b610361565b005b5f3073ffffffffffffffffffffffffffffffffffffffff168773ffffffffffffffffffffffffffffffffffffffff1614158061015d57505f8054906101000a900473ffffffffffffffffffffffffffffffffffffffff1673ffffffffffffffffffffffffffffffffffffffff163373ffffffffffffffffffffffffffffffffffffffff1614155b8061021f57505f8054906101000a900473ffffffffffffffffffffffffffffffffffffffff1673ffffffffffffffffffffffffffffffffffffffff166338d52e0f6040518163ffffffff1660e01b8152600401602060405180830381865afa1580156101cb573d5f803e3d5ffd5b505050506040513d601f19601f820116820180604052508101906101ef919061087f565b73ffffffffffffffffffffffffffffffffffffffff168673ffffffffffffffffffffffffffffffffffffffff1614155b8061022a57505f8414155b15610261576040517f03058a7200000000000000000000000000000000000000000000000000000000815260040160405180910390fd5b8573ffffffffffffffffffffffffffffffffffffffff1663095ea7b35f8054906101000a900473ffffffffffffffffffffffffffffffffffffffff16876040518363ffffffff1660e01b81526004016102bb9291906108b9565b6020604051808303815f875af11580156102d7573d5f803e3d5ffd5b505050506040513d601f19601f820116820180604052508101906102fb919061090a565b507f0947cd39683897964c4681f2a9ace479400f0bd467117d0ae02e99e303012ade90509695505050505050565b600160149054906101000a900460ff1681565b60015f9054906101000a900473ffffffffffffffffffffffffffffffffffffffff1681565b60015f9054906101000a900473ffffffffffffffffffffffffffffffffffffffff1673ffffffffffffffffffffffffffffffffffffffff163373ffffffffffffffffffffffffffffffffffffffff16146103f0576040517f08c379a00000000000000000000000000000000000000000000000000000000081526004016103e79061098f565b60405180910390fd5b5f8111610432576040517f08c379a0000000000000000000000000000000000000000000000000000000008152600401610429906109f7565b60405180910390fd5b5f805f9054906101000a900473ffffffffffffffffffffffffffffffffffffffff1673ffffffffffffffffffffffffffffffffffffffff166338d52e0f6040518163ffffffff1660e01b8152600401602060405180830381865afa15801561049c573d5f803e3d5ffd5b505050506040513d601f19601f820116820180604052508101906104c0919061087f565b90505f8054906101000a900473ffffffffffffffffffffffffffffffffffffffff1673ffffffffffffffffffffffffffffffffffffffff16635cffe9de30838560405180602001604052805f8152506040518563ffffffff1660e01b815260040161052e9493929190610ae0565b6020604051808303815f875af192505050801561056957506040513d601f19601f82011682018060405250810190610566919061090a565b60015b6105c3577f5139e38896648643487d49efb563a1a69db23123a354af42962c882d437532705f60405161059c91906107d8565b60405180910390a160018060146101000a81548160ff0219169083151502179055506105fd565b507f5139e38896648643487d49efb563a1a69db23123a354af42962c882d4375327060016040516105f491906107d8565b60405180910390a15b5050565b5f80fd5b5f80fd5b5f73ffffffffffffffffffffffffffffffffffffffff82169050919050565b5f61063282610609565b9050919050565b61064281610628565b811461064c575f80fd5b50565b5f8135905061065d81610639565b92915050565b5f819050919050565b61067581610663565b811461067f575f80fd5b50565b5f813590506106908161066c565b92915050565b5f80fd5b5f80fd5b5f80fd5b5f8083601f8401126106b7576106b6610696565b5b8235905067ffffffffffffffff8111156106d4576106d361069a565b5b6020830191508360018202830111156106f0576106ef61069e565b5b9250929050565b5f805f805f8060a0878903121561071157610710610601565b5b5f61071e89828a0161064f565b965050602061072f89828a0161064f565b955050604061074089828a01610682565b945050606061075189828a01610682565b935050608087013567ffffffffffffffff81111561077257610771610605565b5b61077e89828a016106a2565b92509250509295509295509295565b5f819050919050565b61079f8161078d565b82525050565b5f6020820190506107b85f830184610796565b92915050565b5f8115159050919050565b6107d2816107be565b82525050565b5f6020820190506107eb5f8301846107c9565b92915050565b6107fa81610628565b82525050565b5f6020820190506108135f8301846107f1565b92915050565b5f6020828403121561082e5761082d610601565b5b5f61083b84828501610682565b91505092915050565b5f61084e82610628565b9050919050565b61085e81610844565b8114610868575f80fd5b50565b5f8151905061087981610855565b92915050565b5f6020828403121561089457610893610601565b5b5f6108a18482850161086b565b91505092915050565b6108b381610663565b82525050565b5f6040820190506108cc5f8301856107f1565b6108d960208301846108aa565b9392505050565b6108e9816107be565b81146108f3575f80fd5b50565b5f81519050610904816108e0565b92915050565b5f6020828403121561091f5761091e610601565b5b5f61092c848285016108f6565b91505092915050565b5f82825260208201905092915050565b7f4f6e6c79206f776e6572000000000000000000000000000000000000000000005f82015250565b5f610979600a83610935565b915061098482610945565b602082019050919050565b5f6020820190508181035f8301526109a68161096d565b9050919050565b7f416d6f756e74206d757374206265203e203000000000000000000000000000005f82015250565b5f6109e1601283610935565b91506109ec826109ad565b602082019050919050565b5f6020820190508181035f830152610a0e816109d5565b9050919050565b5f819050919050565b5f610a38610a33610a2e84610609565b610a15565b610609565b9050919050565b5f610a4982610a1e565b9050919050565b5f610a5a82610a3f565b9050919050565b610a6a81610a50565b82525050565b5f81519050919050565b5f82825260208201905092915050565b8281835e5f83830152505050565b5f601f19601f8301169050919050565b5f610ab282610a70565b610abc8185610a7a565b9350610acc818560208601610a8a565b610ad581610a98565b840191505092915050565b5f608082019050610af35f830187610a61565b610b0060208301866107f1565b610b0d60408301856108aa565b8181036060830152610b1f8184610aa8565b90509594505050505056fea2646970667358221220ad5db75faa2c370344dc34dce9b73cb1cfcfd45f1565c0d83e60fc26c051515064736f6c63430008190033","linkReferences":{}},"methodIdentifiers":{"checkFlashLoan(uint256)":"b20d53e0","onFlashLoan(address,address,uint256,uint256,bytes)":"23e30c8b","owner()":"8da5cb5b","paused()":"5c975abb"},"id":21}